:03000000021DCA14
:0C1DCA00787FE4F6D8FD758120021E1120
:1000260054004E003A0052656164790A0041444327
:1000360020496E69740A004C434420496E69740A6B
:10004600000000F090909090FC9090909090F000BE
:100056000000000F040404047F44444444444F3029
:100066000000404488909090D0B09C98B0D09010FA
:10007600000040300C4440201E007E00007E4041BF
:10008600200000F8080808080808F8080808080802
:100096000040700F0020212121213F21252D3920EC
:1000A6002000042424242424FF24242424240400BB
:1000B6000021211109FD834123050911292541410B
:1000C60000000000F8484C4A49484848FC0800002F
:1000D60000000000FF44444444444444FF00000040
:1000E60000202424E42634201010FF101010F810ED
:1000F60000081C0B08088A4C300C034080403F0067
:100106000000101011121C10F0101814131A900091
:10011600008181414121110D030D11212141C14170
:100126000000FE444850FF504804FC4444C262406C
:1001360000007F2422213F21A2403F0000FF000053
:100146000080828282FE8282828282FE8283C280D6
:1001560000008040300F0000000000FF000000009B
:100166000000101011121C10F0101814131A900031
:10017600008181414121110D030D11212141C14110
:100186000000000000000000000000000000000069
:1001960000000000000000000040C0C0C0808000D9
:1001A60000008080C0C0E0E0E0E0E0E060203030A9
:1001B6003060606060E0E0C0E0E0F0B030303030E9
:1001C60030706060E0E0C0C08080C0808080C0E0A9
:1001D600E0E0F0381E000000000000000000000013
:1001E6000000000000000000000000000000000009
:1001F60000000000000000000000000000000000F9
:1002060000000000000000000000000000000000E8
:1002160000000000000000000000010303071F0F9C
:100226001F7F7FFFFFFFFFFFFFFFFFFFFFFEFFFFB9
:10023600FF4E4ECECE8F9A19F9FFFFFFFFFFFFFE4E
:10024600FEFEFFFCFCF8F9FBFFFFFFFFFFFFFFC709
:10025600010100000000004060606060E0E0FCFC1E
:10026600E0E06060606060E0FEFEE06060606000AC
:100276000000000000000000000000000000000078
:100286000000000000000000000000000000000068
:100296000000000000000000000000000000000058
:1002A600000000000000000287878F8F8F9F9F9FAE
:1002B6009F9FDEFEFCF9F1F3F3E7E7FFFFFFFFFF89
:1002C600FFFFFFFFFFFFFFF7E7C78707070F0F0FC8
:1002D6000F000000000000000406070303011F1FB3
:1002E600030B1F1E0E06030F1F071F3C30200000C6
:1002F60000000000000000000000000000000000F8
:1003060000000000000000000000000000000000E7
:1003160000000000000000000000000000000000D7
:10032600000000060F6F6F7F7F7F7F7F7F7F7FFFDD
:10033600FFFF7F7F7F7F7F7FFFFFFFFF7F7F7F7FC7
:10034600FFFFFF3F3F3F3F7FFFFF3F3E3C3C3818EC
:1003560008080808180000000000000000C0C0805F
:100366000000000000000000000000000000000087
:100376000000000000000000000000000000000077
:100386000000000000000000000000000000000067
:100396000000000000000000000000000000000057
:1003A6000000000000000000E0F0F8FCDECEC7C14F
:1003B600C1F1F8FCDECFFFFFFF8180808080808066
:1003C6008FFFFFFF00000000001FFFFE600000001F
:1003D60000000000000C0C0C0C0C0C0C0CFFFF08B1
:1003E60008081B1F1E1C181818000000000000003B
:1003F60000000000000000000000000000000000F7
:1004060000000000000000000000000000000000E6
:1004160000000000000000000000000000000000D6
:1004260000000000000000000307CFFFFFFFFFFFF2
:10043600FFFFFFFFFFFFFFFFFFFFFFFFFFFFFFFFC6
:10044600FFFFFFFFFFFFFF0E0E0F07030000000078
:10045600000000000000E06060703030181F1F3C94
:10046600FEE68383808080C0C0000000000000009C
:100476000000000000000000000000000000000076
:100486000000000000000000000000000000000066
:100496000000000000000000000000000000000056
:1004A60000000000000000000000FFEFF7F5FEFC72
:1004B600F3DFFFDFF8FEE6C9FFFF81F9FFE7F7FB91
:1004C60081FBFFFFFFFF00000000000000000000AE
:1004D6000000000000000000000000000000000016
:1004E6000000000101010101010000000000000000
:1004F60000000000000000000000000000000000F6
:1005060000000000000000000000000000000000E5
:1005160000000000000000000000000000000000D5
:10052600000000000000000000101F3F3F3F3F3F5B
:100536003F3F7F7F7F7F7F7F7F7F7F7F7FFFFFFFC5
:10054600FFFFFFFFFF0100000000000000000000A9
:100556000000000000000000000000000000000095
:100566000000000000000000000000000000000085
:100576000000000000000000000000000000000075
:10058600000000000000000000002F00000000072F
:1005960000070000147F147F1400242A7F2A12000B
:1005A60062640813230036495522500000050300F3
:1005B6000000001C224100000041221C000014081B
:1005C6003E08140008083E0808000000A06000006D
:1005D60008080808080000606000000020100804F1
:1005E60002003E5149453E0000427F400000426104
:1005F600514946002141454B31001814127F100025
:100606002745454539003C4A4949300001710905ED
:100616000300364949493600064949291E00003675
:100626003600000000563600000008142241000083
:100636001414141414000041221408000201510974
:100646000600324959513E007C1211127C007F4946
:10065600494936003E41414122007F4141221C006A
:100666007F49494941007F09090901003E4149493D
:100676007A007F0808087F0000417F410000204083
:10068600413F01007F08142241007F404040400066
:100696007F020C027F007F0408107F003E4141412B
:1006A6003E007F09090906003E4151215E007F098F
:1006B6001929460046494949310001017F010100D7
:1006C6003F4040403F001F2040201F003F40384031
:1006D6003F0063140814630007087008070061519F
:1006E60049454300007F41410000552A552A5500DF
:1006F6000041417F000004020102040040404040E6
:1007060040000001020400002054545478007F4841
:1007160044443800384444442000384444487F0068
:10072600385454541800087E0901020018A4A4A4E1
:100736007C007F080404780000447D40000040806F
:10074600847D00007F102844000000417F400000A7
:100756007C04180478007C08040478003844444477
:100766003800FC242424180018242418FC007C08D3
:1007760004040800485454542000043F4440200018
:100786003C4040207C001C2040201C003C40304067
:100796003C004428102844001CA0A0A07C0044640F
:1007A600544C4414141414141400000000000000E7
:1007B600000000000000000000000000F80000003B
:1007C60000000000333000000000100C06100C067C
:1007D60000000000000000000040C07840C07840E3
:1007E60000043F04043F040400007088FC08300045
:1007F60000001820FF211E0000F008F000E018009D
:100806000000211C031E211E0000F0088870000055
:10081600001E2123241927211010160E00000000A7
:10082600000000000000000000000000E0180402C4
:1008360000000000071820400000020418E0000035
:10084600000040201807000000404080F080404033
:10085600000202010F01020200000000F000000089
:10086600000101011F01010100000000000000005D
:100876000080B070000000000000000000000000D2
:10088600000001010101010101000000000000005B
:1008960000003030000000000000000000806018FA
:1008A60004006018060100000000E010080810E0CF
:1008B60000000F102020100F00001010F80000009C
:1008C600000020203F2020000000700808088870E3
:1008D6000000302824222130000030088888483063
:1008E600000018202020110E000000C02010F80083
:1008F6000000070424243F240000F808888808081C
:10090600000019212020110E0000E0108888180030
:1009160000000F112020110E0000380808C8380802
:10092600000000003F000000000070880808887082
:1009360000001C222121221C0000E010080810E003
:10094600000000312222110F00000000C0C000008C
:1009560000000000303000000000000080000000B1
:1009660000000080600000000000008040201008A9
:100976000000010204081020004040404040404072
:10098600000404040404040400000810204080004D
:10099600000020100804020100007048080808F052
:1009A600000000003036010000C030C828E810E022
:1009B600000718272423140B000000C038E00000AD
:1009C60000203C23020227382008F8888888700017
:1009D60000203F202020110E00C0300808080838EB
:1009E60000071820202010080008F808080810E062
:1009F60000203F202020100F0008F88888E8081003
:100A060000203F20202320180008F88888E80810D6
:100A160000203F200003000000C03008080838000E
:100A26000007182020221E020008F808000008F817
:100A360008203F210101213F20000808F80808008E
:100A4600000020203F2020000000000808F80808C9
:100A560000C08080807F00000008F888C028180841
:100A660000203F20012638200008F808000000007A
:100A760000203F20202020300008F8F800F8F80871
:100A860000203F003F003F200008F830C00008F873
:100A960008203F200007183F00E01008080810E073
:100AA600000F10202020100F0008F808080808F092
:100AB60000203F210101010000E01008080810E0B5
:100AC600000F18242438504F0008F888888888704A
:100AD60000203F2000030C302000708808080838EA
:100AE600000038202121221C00180808F8080818E0
:100AF600000000203F2000000008F808000008F869
:100B060008001F202020201F000878880000C83811
:100B160008000007380E010000F80800F80008F881
:100B260000033C0700073C0300081868808068182B
:100B36000820302C03032C30200838C800C8380899
:100B4600000000203F2000000010080808C83808F0
:100B5600002038262120201800000000FE02020294
:100B6600000000007F40404000000C30C000000044
:100B760000000000010638C00000020202FE00006C
:100B860000004040407F0000000000040202020412
:100B9600000000000000000000000000000000004F
:100BA6000080808080808080800002020400000037
:100BB600000000000000000000000080808080002F
:100BC600000019242222223F2008F800808000001D
:100BD60000003F112020110E0000000080808000E0
:100BE60000000E112020201100000000808088F8EF
:100BF60000000E112020103F200000808080800021
:100C060000001F222222221300008080F08888889C
:100C1600180020203F202000000000808080808077
:100C260000006B94949493600008F8008080800024
:100C360000203F210000203F2000809898000000FF
:100C4600000020203F20200000000000809898002F
:100C56000000C08080807F000008F800008080804F
:100C660000203F24022D302000000808F800000074
:100C7600000020203F20200000808080808080802F
:100C860000203F20003F20003F80800080808000C1
:100C960000203F210000203F20000080808080004F
:100CA60000001F202020201F008080008080000080
:100CB6000080FFA12020110E0000000080808080AF
:100CC60000000E112020A0FF8080808000808080A0
:100CD6000020203F212000010000008080808080CD
:100CE600000033242424241900008080E080800042
:100CF600000000001F20200000808000000080808F
:100D060000001F202020103F20808080000080806F
:100D16008000010E3008060100808000800080807F
:100D2600800F300C030C300F000080800080808024
:100D3600000020312E0E312000808080000080804F
:100D46008080818E701806010000808080808080FF
:100D5600000021302C2221300000000000807C029F
:100D66000200000000003F404000000000FF0000BD
:100D76000000000000FF0000000002027C8000006E
:100D8600000040403F00000000000601010202048E
:100D960004000000000000000030313233343536E4
:100DA60037383941424344454600493A302E3030BF
:020DB6004100FA
:101F9400C1014402A10000000044026B00000000E3
:101FA40044029D0000000044029900000000440225
:101FB400780000000044029500000000C1004102C6
:0B1FC400940041026FCF420269000050
:1020E300EF4E60157D087C07ED1DAA0470011C4AA4
:0920F30070F6EF1F70EA1E80E791
:0120FC0022C1
:10208B00E4FEFDEF5401FCEFC313FFEC2EFEED64F9
:0E209B00076004EE25E0FE0DEDB408E7AF0689
:0120A9002214
:0D20FD0074472BF58274003AF583E493FFDD
:0D210A00D2938FCFE5CD30E7FB75CDC0221D
:0D21170024B0FF1221247F011221247F102B
:0D212400C2938FCFE5CD30E7FB75CDC02213
:06202300E0FFA3A3E0FDB5
:10202900AE07ED24B0FF122124EE54F0C4540F443E
:0E20390010FF122124EE540F4401FF02212457
:02213100AE07F7
:10213300E4FDED122117E4FCAF0612210A0CECB406
:0721430080F60DEDB408EB7E
:01214A002272
:10216400E4FEEE122117E4FDE4FF12210A0DEDB4A2
:0721740080F60EEEB408EB4B
:01217B002241
:101D1700E4F5CF75CDC075CED0D297C2947F32FE91
:101D27001220E3D2947FAE122124E4FF12211F7FF9
:101D3700401221247F811221247FCF1221242002E7
:101D4700097FA11221247FC880077FA01221247F49
:101D5700C01221247FA61221247FA81221247F3FAD
:101D67001221247FD3122124E4FF1221247FD512CC
:101D770021247F801221247FD91221247FF112216F
:101D8700247FDA1221247F121221247FDB122124DF
:101D97007F401221247F201221247F021221247FD9
:101DA7008D1221247F141221247FA41221247FA6BF
:101DB7001221247FAF122124E4FF122131E4FDFF19
:031DC700022029CE
:101E560090000BEFF0A3ECF0A3EDF0A3EBF0A3EAF8
:041E6600F0A3E9F00C
:101E6A00E4A3F0FEA3F090000EE0FBA3E0FAA3E0E7
:101E7A00F9900012E0F58275830012125E60582410
:101E8A00E0900011F090000BE0D3947E4010E4F053
:101E9A0090000DE004F0700690000CE004F0900051
:101EAA000B122023E4FE900011E075F006A42487AB
:101EBA00F582E5F03405F583E5822EF582E4358373
:101ECA001221050EEEB406DE90000BE02406F09017
:071EDA000012E004F0808F0C
:011EE10022DE
:081B85007B017A007903E4FF03
:101B8D0090000BEFF0A3ECF0A3EDF0A3EBF0A3EAC4
:041B9D00F0A3E9F0D8
:101BA100E4A3F0FEA3F090000EE0FBA3E0FAA3E0B3
:101BB100F9900012E0F58275830012125E70030243
:101BC1001C4D24E0900011F090000BE0D39478407C
:101BD10010E4F090000DE004F0700690000CE004B9
:101BE100F090000B122023E4FE900011E075F0103C
:101BF100A42EF582E435F0F583E58224AFF582E584
:101C01008334071221050EEEB408DE90000BE0FFCD
:101C1100A3A3E004FD122029E4FE900011E075F079
:101C210010A42EF582E435F0F583E58224B7F58220
:101C3100E58334071221050EEEB408DE90000BE0B7
:0C1C41002408F0900012E004F0021BA741
:011C4D002274
:041F41007A007D069F
:0A1F450090000BECF0A3EDF0A907EB
:101F4F00AE02EB7805C333CE33CED8F9FBAA06AF7A
:101F5F000190000BA3E0FD122029E4FE1220FD0BDF
:101F6F00BB00010A0EEEB410F3AF0190000BA3E01B
:101F7F0004FD122029E4FE1220FD0BBB00010A0E06
:041F8F00EEB410F3A9
:011F9300222B
:101C4E009002C6EFF0A3ECF0A3EDF0A3EAF0A3EB45
:011C5E00F095
:101C5F00E49002D0F0A3F09002CBE0FAA3E0FB7C7B
:101C6F00007D08FFAE021212E0ED4C7011FC7D08F2
:101C7F00AF03AE021212E09002D3EFF08015900284
:101C8F00CBE0FEA3E0FF7C007D081212E0EF049092
:101C9F0002D3F09002C7A3E09002D3F09002D3E0FA
:101CAF00FDFFD39002CCE09F7480F89002CBE064EC
:101CBF00809840539002C6E0FF122029E09002D294
:101CCF00F09002D2E0FFD39002CAE09F7480F890A8
:101CDF0002C9E064809840279002CDE0FBA3E0FAB0
:101CEF00A3E0F9A3E475F00112131685F082F583D2
:101CFF0012125EFF12210A9002D2E004F080C2900D
:071D0F0002D3E004F080950F
:011D160022AA
:0D214B00540F24A6F582E43402F583E0FF72
:0C215800C2AC8F993099FDC299D2AC2224
:10204700121245601CB40A097F0D1221587F0A80BD
:1020570004121245FF122158740129F9E43AFA8053
:02206700DF2276
:051FD0009002A5EFF0F6
:101FD50078A67C027D017BFF7A0D799F7E007F11BB
:101FE50012121F9002A5E0C412214B9002A5E01227
:071FF500214B7F200221585F
:0616EF009002B712145A2C
:1016F5007B007AE4790B78549002B7E0FCA3E0FD17
:10170500A3E0FEA3E0FF1213B7AC00AD01AE02AF3C
:10171500037B007ACA799A783B1213B79002BCEF23
:10172500F07B007ACA799A783B9002B7E0FCA3E097
:10173500FDA3E0FEA3E0FF1213B7AC00AD01AE02BE
:10174500AF037B007AE179F578051213B79002BDF6
:10175500EFF07B007AE179F578059002B7E0FCA31C
:10176500E0FDA3E0FEA3E0FF1213B7AC00AD01AEB0
:1017750002AF037B807A96799878001213B79002AE
:10178500BEEFF07B807A96799878009002B7E0FCFE
:10179500A3E0FDA3E0FEA3E0FF1213B7AC00AD018B
:1017A500AE02AF037B407A42790F78001213B790EF
:1017B50002BFEFF07B407A42790F78009002B7E0E4
:1017C500FCA3E0FDA3E0FEA3E0FF1213B7AC00AD60
:1017D50001AE02AF037BA07A86790178001213B7B8
:1017E5009002C0EFF07BA07A86790178009002B76D
:1017F500E0FCA3E0FDA3E0FEA3E0FF1213B7AC00FD
:10180500AD01AE02AF03E47B107A27F9F81213B7E6
:101815009002C1EFF0E47B107A27F9F89002B7E067
:10182500FCA3E0FDA3E0FEA3E0FF1213B7AC00ADFF
:1018350001AE02AF03E47BE87A03F9F81213B7901F
:1018450002C2EFF0E47BE87A03F9F89002B7E0FC16
:10185500A3E0FDA3E0FEA3E0FF1213B7AC00AD01CA
:10186500AE02AF03E47B64FAF9F81213B79002C332
:10187500EFF0E47B64FAF9F89002B7E0FCA3E0FD31
:10188500A3E0FEA3E0FF1213B7AC00AD01AE02AFBB
:1018950003E47B0AFAF9F81213B79002C4EFF0E4F7
:1018A5007B0AFAF9F89002B7E0FCA3E0FDA3E0FE9D
:1018B500A3E0FF1213B79002C5EBF0E4FE9002BB64
:1018C500E0FFC3740A9FFFEEC39F501074BC2EF552
:1018D50082E43402F583E070030E80E1EEC3940ADE
:1018E50040057F30022158EEC3940A501474BC2E73
:1018F500F582E43402F583E02430FF1221580E808E
:01190500E6FB
:0119060022BE
:0A000E00759D07E4F5BD75BC802266
:101FFC00EFC394035020EF4488F5BC00000000E5CB
:10200C00BC30E4FB53BCEFAFBDEF75F004A4FFAEE6
:07201C00F0ADBEEF4DFF2205
:1014A3009002641214660000000090027412146625
:1014B3000000000090029012146600000000E49007
:1014C3000003F0E4FF121FFC900003E075F002A498
:1014D3002406F582E5F03400F583EEF0A3EFF07F08
:1014E30001121FFC900003E075F002A424D0F582E2
:1014F300E5F03400F583EEF0A3EFF07F02121FFC5A
:10150300900003E075F002A4249AF582E5F034011B
:10151300F583EEF0A3EFF0900003E004F0E0C39452
:101523006540A0E4900004F0E4900003F090000410
:10153300E0FFC374659FFF900003E0C39F40030275
:101543001632E4900005F0900005E0FF75F0CAA4A0
:101553002408F582E5F03400F583C083C08290004F
:1015630003E0FED082D08375F002121497E0FCA34F
:10157300E0FD75F0CAEFA42406F582E5F03400F52A
:101583008375F002EE121497E0FEA3E0FFD39DEE05
:101593009C500302161BE4FCFD90026412145A9043
:1015A3000005E0FF75F0CAA42408F582E5F03400D5
:1015B300F583C083C082900003E0FED082D08375A0
:1015C300F002121497E0FCA3E0FD75F0CAEFA42427
:1015D30006F582E5F03400F58375F002EE121497F8
:1015E300ECF0A3EDF0900264A3A3E0FEA3E0FF9070
:1015F3000005E075F0CAA42408F582E5F03400F58F
:1016030083C083C082900003E0D082D08375F00250
:10161300121497EEF0A3EFF0900005E004F0E064FD
:1016230003600302154A900003E004F002153090B2
:101633000004E004F0E06464600302152B90006A88
:10164300E0FEA3E0FFE4FCFD90026412145A900153
:1016530034E0FEA3E0FFE4FCFD90027412145A9000
:1016630001FEE0FEA3E0FFE4FCFD90029012145A99
:10167300900264E0F8A3E0F9A3E0FAA3E0FB7FFFA4
:101683007EDB7D037C001213B790027012145AE4C0
:101693007F7BFEFDFC900274E0F8A3E0F9A3E0FA7F
:1016A300A3E0FB12132C900264E0F8A3E0F9A3E09B
:1016B300FAA3E0FB1213B790027412145AE47FEEFC
:1016C3007E01FDFC900290E0F8A3E0F9A3E0FAA309
:1016D300E0FB12132C900264E0F8A3E0F9A3E0FA14
:0C16E300A3E0FB1213B790029002145A0F
:100DB80078037C007D017BFF7A0D79B07E007F0887
:100DC80012121F900270E0FCA3E0FDA3E0FEA3E076
:100DD800FF900290E0F8A3E0F9A3E0FAA3E02FFF68
:100DE800EA3EFEE93DFDE83CFCE47B02FAF9F81234
:100DF80013B79002A112145A9000037455F0A3740B
:100E08003AF0E47B64FAF9F89002A1E0FCA3E0FD73
:100E1800A3E0FEA3E0FF1213B7EF2430900005F023
:100E2800A3742EF0E47B0AFAF9F89002A1E0FCA37F
:100E3800E0FDA3E0FEA3E0FF1213B7E47B0AFAF992
:100E4800F81213B7EB2430900007F0E47B0AFAF9A4
:100E5800F89002A1E0FCA3E0FDA3E0FEA3E0FF12EE
:100E680013B7EB2430900008F0A37456F07C0030E0
:100E780001047D0080027D02121B85E47F02FEFDD5
:100E8800FC900274E0F8A3E0F9A3E0FAA3E0FB12F7
:100E9800132C90026B12145A9000037449F0A37437
:100EA8003AF0E47B64FAF9F890026BE0FCA3E0FD09
:100EB800A3E0FEA3E0FF1213B7EF2430900005F083
:100EC800A3742EF0E47B0AFAF9F890026BE0FCA315
:100ED800E0FDA3E0FEA3E0FF1213B7E47B0AFAF9F2
:100EE800F81213B7EB2430900007F0E47B0AFAF904
:100EF800F890026BE0FCA3E0FDA3E0FEA3E0FF1284
:100F080013B7EB2430900008F0A37441F07C003054
:100F180001047D0280027D04121B85E47B107A0E99
:100F2800F9F8900299E0FCA3E0FDA3E0FEA3E0FF3E
:100F38001213B7E47B0AFAF9F81213B7E47B0AFA3A
:100F4800F9F81213B7EB2430900003F0E47B107A21
:100F58000EF9F8900299E0FCA3E0FDA3E0FEA3E0FF
:100F6800FF1213B7E47B0AFAF9F81213B7EB24302F
:100F7800900004F0A3743AF0E47B107A0EF9F8902C
:100F88000299E0FCA3E0FDA3E0FEA3E0FF1213B783
:100F9800AC00AD01AE02AF03E47B3CFAF9F81213E2
:100FA800B7E47B0AFAF9F81213B7EF243090000679
:100FB800F0E47B107A0EF9F8900299E0FCA3E0FDCA
:100FC800A3E0FEA3E0FF1213B7AC00AD01AE02AF81
:100FD80003E47B3CFAF9F81213B7E47B0AFAF9F850
:100FE8001213B7EB2430900007F0E4A3F0300104AB
:100FF800FCFD80047C007D027B017A0079037F5030
:10100800121B8DE4FFFEFDFC90026BE0F8A3E0F9F3
:10101800A3E0FAA3E0FBC312144960137C0030017B
:10102800047D0180027D037BFF7A00792680117C94
:10103800003001047D0180027D037BFF7A0079285E
:101048007F78121E56E47BE87A03F9F890029DE057
:10105800FCA3E0FDA3E0FEA3E0FF1213B7AB077EFD
:10106800007C277D1012128B7C007D0A12128BEDFA
:101078002430900003F0EBFF7E007C037DE8121221
:101088008B7C007D0A12128BED2430A3F0EB75F0F7
:10109800648475F00A84E5F02430A3F0EB75F00A57
:1010A8008475F00A84E5F02430A3F0EB75F00A8427
:1010B800E5F02430A3F0E4A3F0300105FC7D0280C4
:1010C800047C007D047B017A0079037F47121B8D25
:1010D8007E01EE90075593FF12210A0EEEB406F238
:1010E800E4FEEE90070D93FF12210A0EEEB406F20D
:1010F800E4FEEE90073793FF12210A0EEEB406F2D3
:101108007B047A007D067C00E4FF121F457B057F87
:1011180010121F417B067F20121F417B077A007D3A
:10112800067F30121F457BFF7A00792A7D067F40B3
:10113800121B8D7A003000047B0880027B097D0633
:071148007C007F48021F45F7
:1020C800EF1FAA0670011E4A60107C137D88ED1D63
:0A20D800AA0470011C4A60E880F4BD
:0120E20022DB
:10190700D2A8758801438780759850538EFB759CC4
:10191700FE438E01438E10538E7F538EBF75891100
:10192700E4F58A758C70C28DD28CF58B758D70C27B
:101937008FC28ED2ABD2A9D2ACD2AF20B202B20143
:101947007BFF7A00792C12204712000E7A00793338
:10195700122047A2019202121D177A00793D122028
:10196700477594FFE4FBFA3001307D06FC7F1812BF
:101977001F457B017A007D067F28121F45E4FBFA8D
:101987007D067F38121F457B027A007D067F48124D
:101997001F457B037A007D06802CFDFC7F18121FF4
:1019A700457B017A00E4FD7F28121F45E4FBFAFD21
:1019B7007F38121F457B027A00E4FD7F48121F45DE
:1019C7007B037A00E4FD7F58121F451214A3120D02
:1019D700B8C2A57F907E011220C81214A3120DB8B9
:1019E700E47F3CFEFDFC900278E0F8A3E0F9A3E079
:1019F700FAA3E0FBD3121449402FE47F1EFEFDFC3F
:101A070090026BE0F8A3E0F9A3E0FAA3E0FB12145D
:101A1700495016E4FFFEFDFC90026BE0F8A3A3A378
:101A2700E0C31214496002D2A5E47FFAFEFDFC90E0
:101A3700026BE0F8A3E0F9A3E0FAA3E0FBD31214EA
:101A4700494005200002D2A5900294E0FBB4022889
:101A5700B2A5900278121466000000009002991255
:101A670014660000000090029D121466000000003A
:101A7700E4900294F00219E1EB640160030219E1BA
:091A8700B200900294F00219E192
:03000B00021A9046
:101A9000C0E0C0F0C083C082C0D075D000C000C01C
:0D1AA00001C002C003C004C005C006C0079D
:101AAD00758A00758C70900268E004F0C394325012
:101ABD0003021B6AE4F0900278E0FCA3E0FDA3E0D2
:101ACD00FEA3E02401FFE43EFEE43DFDE43CFC907A
:101ADD00027812145AE4FFFEFDFC90026BE0F8A3AD
:101AED00E0F9A3E0FAA3E0FBC3121449601F9002D2
:101AFD0099E0FCA3E0FDA3E0FEA3E02401FFE43E9A
:101B0D00FEE43DFDE43CFC90029912145A90029DB6
:101B1D00E0F8A3E0F9A3E0FAA3E0FBC000C001C028
:101B2D0002C003E47F19FEFDFC90026BE0F8A3E018
:101B3D00F9A3E0FAA3E0FB12132CE47B09FAF9F800
:101B4D001213B7D003D002D001D000EB2FFFEA3E25
:0D1B5D00FEE93DFDE83CFC90029D12145A8B
:101B6A00D007D006D005D004D003D002D001D000CF
:0B1B7A00D0D0D082D083D0F0D0E03279
:03001B00021EE2E0
:081EE200C0E0C083C082C0D043
:101EEA00758BCD758DF820B22590026AE004F070EA
:101EFA0006900269E004F0D390026AE094DC900252
:101F0A0069E0940540289002947401F08015D390FA
:101F1A00026AE094DC900269E0940550069002940B
:0E1F2A007401F0900269E4F0A3F0C28ED2A818
:091F3800D0D0D082D083D0E03279
:030003000220AA2E
:1020AA00C0E0C0D075D000C2A87F037E001220C84D
:0E20BA0020B204D28E8002D2A8D0D0D0E03264
:030023000220694F
:09206900C0E0C0D075D000C00732
:1020720030980DC298AF99EFB4A80775C760800277
:02208200C29901
:07208400D007D0D0D0E032FC
:101DD600021907E493A3F8E493A34003F68001F203
:101DE60008DFF48029E493A3F85407240CC8C3330E
:101DF600C4540F4420C8834004F456800146F6DFDD
:101E0600E4800B0102040810204080901F94E47EB9
:101E1600019360BCA3FF543F30E509541FFEE493D1
:101E2600A360010ECF54C025E060A840B8E493A398
:101E3600FAE493A3F8E493A3C8C582C8CAC583CAC3
:101E4600F0A3C8C582C8CAC583CADFE9DEE780BE7B
:011FCF000011
:10114F00E709F608DFFA8046E709F208DFFA803E82
:10115F0088828C83E709F0A3DFFA8032E309F6086F
:10116F00DFFA8078E309F208DFFA807088828C83D7
:10117F00E309F0A3DFFA806489828A83E0A3F6088B
:10118F00DFFA805889828A83E0A3F208DFFA804C65
:10119F0080D280FA80C680D4806980F2803380103C
:1011AF0080A680EA809A80A880DA80E280CA8033A5
:1011BF0089828A83ECFAE493A3C8C582C8CCC5831D
:1011CF00CCF0A3C8C582C8CCC583CCDFE9DEE780ED
:1011DF000D89828A83E493A3F608DFF9ECFAA9F06C
:1011EF00EDFB2289828A83ECFAE0A3C8C582C8CCC2
:1011FF00C583CCF0A3C8C582C8CCC583CCDFEADEDB
:10120F00E880DB89828A83E493A3F208DFF980CC3C
:10121F0088F0EF60010E4E60C388F0ED2402B40435
:10122F000050B9F582EB2402B4040050AF232345DC
:06123F00822390119F7351
:10124500BB010689828A83E0225002E722BBFE02A7
:09125500E32289828A83E49322DA
:10125E00BB010CE58229F582E5833AF583E0225045
:10126E0006E92582F8E622BBFE06E92582F8E2228F
:0D127E00E58229F582E5833AF583E49322A9
:10128B00BC000BBE0029EF8DF084FFADF022E4CC47
:10129B00F875F008EF2FFFEE33FEEC33FCEE9DEC10
:1012AB00984005FCEE9DFE0FD5F0E9E4CEFD22ED56
:1012BB00F8F5F0EE8420D21CFEADF075F008EF2FA0
:1012CB00FFED33FD4007985006D5F0F222C398FD91
:0512DB000FD5F0EA222E
:1012E000C2D5EC30E709B2D5E4C39DFDE49CFCEE29
:1012F00030E715B2D5E4C39FFFE49EFE12128BC304
:10130000E49DFDE49CFC800312128B30D507C3E4FE
:061310009FFFE49EFE2297
:10131600A3F8E0C5F025F0F0E5821582700215838A
:06132600E0C838F0E822E7
:10132C00E88FF0A4CC8BF0A42CFCE98EF0A42CFC60
:10133C008AF0EDA42CFCEA8EF0A4CDA8F08BF0A4DE
:10134C002DCC3825F0FDE98FF0A42CCD35F0FCEB3D
:10135C008EF0A4FEA9F0EB8FF0A4CFC5F02ECD3902
:0F136C00FEE43CFCEAA42DCE35F0FDE43CFC226F
:10137B0075F008758200EF2FFFEE33FECD33CDCC29
:10138B0033CCC58233C5829BED9AEC99E5829840AC
:10139B000CF582EE9BFEED9AFDEC99FC0FD5F0D689
:1013AB00E4CEFBE4CDFAE4CCF9A88222B800C1B9B3
:1013BB000059BA002DEC8BF084CFCECDFCE5F0CBF1
:1013CB00F97818EF2FFFEE33FEED33FDEC33FCEB2A
:1013DB0033FB10D703994004EB99FB0FD8E5E4F9E5
:1013EB00FA227818EF2FFFEE33FEED33FDEC33FCD2
:1013FB00C933C910D7059BE99A4007EC9BFCE99AC6
:10140B00F90FD8E0E4C9FAE4CCFB2275F010EF2F0A
:10141B00FFEE33FEED33FDCC33CCC833C810D7070A
:10142B009BEC9AE899400AED9BFDEC9AFCE899F845
:0E143B000FD5F0DAE4CDFBE4CCFAE4C8F922D8
:10144900EB9FF5F0EA9E42F0E99D42F0E89C45F0F9
:011459002270
:0C145A00ECF0A3EDF0A3EEF0A3EFF02205
:10146600A8828583F0D083D08212147D12147D1257
:10147600147D12147DE473E493A3C583C5F0C5837C
:10148600C8C582C8F0A3C583C5F0C583C8C582C8D0
:011496002233
:0C149700A42582F582E5F03583F5832260
:00000001FF
